:020000040800F2
:10000000900700202D130008BD020008BF02000861
:10001000C3020008C7020008CB020008000000006D
:10002000000000000000000000000000CF020008F7
:10003000D102000800000000D3020008D502000829
:100040004713000847130008471300084713000828
:100050004713000847130008471300084713000818
:100060004713000847130008471300084713000808
:1000700047130008471300084713000847130008F8
:1000800047130008471300084713000847130008E8
:1000900047130008471300084713000847130008D8
:1000A00047130008471300084713000847130008C8
:1000B00047130008471300084713000847130008B8
:1000C00047130008471300084713000847130008A8
:1000D00047130008A112000847130008471300083F
:1000E0004713000847130008471300084713000888
:1000F0004713000847130008471300084713000878
:100100004713000847130008471300084713000867
:100110004713000847130008471300084713000857
:100120004713000847130008471300084713000847
:100130004713000847130008471300084713000837
:100140004713000847130008471300084713000827
:100150004713000847130008471300084713000817
:100160004713000847130008471300084713000807
:1001700047130008471300084713000847130008F7
:10018000471300084713000800F002F800F049F890
:100190000AA090E8000C82448344AAF10107DA45E2
:1001A00001D100F03EF8AFF2090EBAE80F0013F0EB
:1001B000010F18BFFB1A43F001031847884C0000D9
:1001C000A84C0000103A24BF78C878C1FAD852076A
:1001D00024BF30C830C144BF04680C6070470000C1
:1001E0000023002400250026103A28BF78C1FBD840
:1001F000520728BF30C148BF0B607047662904F022
:100200001285002070471FB504F003FD02F030FA9C
:1002100004000020002103F0C7FEE0601FBD10B500
:1002200010BD02F041FB1146FFF7EDFF00F008F8AA
:1002300002F05FFB03B4FFF7F2FF03BC00F0D0FF56
:100240002DED048B86B04FF4A06001F08FF84FF4D1
:10025000E13000F0D3FF00F047F900F065F9A82085
:1002600000F03CFF00F029FE21E002AB03AA05A943
:1002700004A800F0B5FE642000F092FF0C4800686E
:1002800008B9012000E0002009490860059804F041
:100290004FFC41EC190B039804F04AFC41EC180B9D
:1002A0008DED009B53EC182B02A001F073FFDCE7EF
:1002B000A48242422566452566450000704700BF7E
:1002C000FEE700BFFEE700BFFEE700BFFEE77047A6
:1002D00070477047704700000CB5002001900090F7
:1002E0007648006840F480307449086000BF734865
:1002F000006800F4003000900198401C01900098C4
:1003000018B90198B0F5A04FF1D16C48006800F41D
:10031000003010B10120009001E000200090009812
:10032000012846D165484030006840F0805063495C
:10033000403108606248006840F44040604908600D
:100340005E48083000685D4908310860084600686A
:1003500040F4004008600846006840F4A05008607F
:100360005848091F0860081F006840F08070091F86
:10037000086000BF5148006800F000700028F9D004
:1003800040F20570504908604C480830006820F081
:1003900003004A49083108600846006840F002003E
:1003A000086000BF45480830006800F00C000828CD
:1003B000F8D10CBD10B54548006840F470004349C1
:1003C00008603E48006840F001003C490860002099
:1003D0003A4908310860394800683D4908403749C2
:1003E00008603C48091D0860081F006820F4802050
:1003F000091F0860002031490C310860FFF76CFFCD
:100400004FF0006031498039086010BD70B50020A0
:100410000022022300240221284D08352D6805F012
:100420000C0020B1042806D0082834D107E02A4D5A
:100430002A4E356033E02A4D284E35602FE01F4D9F
:100440002D1D2D68C5F380541C4D2D1D2D6805F004
:100450003F0154B1224DB5FBF1F5184E361D3668FB
:10046000C6F3881605FB06F209E01B4DB5FBF1F556
:10047000124E361D3668C6F3881605FB06F20F4D80
:100480002D1D2D68C5F301456D1C6B00B2FBF3F506
:10049000124E356003E0104D104E356000BF00BFB6
:1004A000064D08352D68C5F303150E4E705D0B4DD6
:1004B0002D68C540094E356070BD0000003802400F
:1004C0000070004008544007003C024088ED00E006
:1004D000FFFFF6FE103000240024F400000000208E
:1004E00000127A00040000201CB50121202001F038
:1004F000D1FA4FF4C060009001208DF80400002074
:100500008DF8060003208DF8050001208DF8070006
:100510006946044801F020F84FF4C061014801F039
:1005200097F81CBD001402401CB50121022001F007
:10053000B1FA4FF44070009000208DF806000320BF
:100540008DF805006946FE4801F006F80120FD49D6
:100550000860FD49C1F8A4021CBD10B5F848006848
:1005600020F44020F64908600846006840F48020E6
:1005700008600120F349091D0860F349C1F8A00291
:10058000042000F0C5FD0020EE49091D086004208C
:1005900000F0BEFD0020EC49C1F8A00210BD10B56E
:1005A000E748006820F44020E549086008460068F4
:1005B00040F4802008600020E2490860E249C1F868
:1005C000A402042000F0A4FD0120DE490860DE49F9
:1005D000C1F8A402042000F09BFD10BD10B500245A
:1005E000D748006820F44020D549086008460068D4
:1005F00008600120D349091D086000F089FD012031
:10060000D149C1F8A00200F083FD07E0601CC4B22C
:10061000FA2C03DDFFF7C3FF012010BDC9487C3869
:1006200000680028F2D1C749086000BFF5E710B59F
:100630000020C4490860C248006820F44020C04936
:1006400008600846006840F4802008600020BE4929
:10065000C1F8A402022000F05BFD0120B949086046
:10066000022000F055FD0020B749C1F8A00210BDDE
:1006700010B50020B3490860B148006820F440205C
:10068000AF4908600846006840F4802008600120F7
:10069000AD49C1F8A402022000F03AFD0120A949A9
:1006A0000860022000F034FD0020A749C1F8A00234
:1006B00010BD70B50446A248006820F44020A0494F
:1006C00008600846006840F48020086000209D49CA
:1006D0000860002517E0E0099A49091D08606006D6
:1006E000040E022000F014FD01209749C1F8A00279
:1006F000022000F00DFD002092490860022000F069
:1007000007FD681CC5B2082DE5DB70BD70B5054658
:1007100000248B48006820F440208949086008467E
:1007200000680860002616E0002086490860022064
:1007300000F0EEFC01208449C1F8A0026006040E1E
:1007400080487C38006808B1601CC4B2012000F009
:10075000DFFC701CC6B2082EE6DB15B9FFF788FF78
:1007600001E0FFF764FF204670BD70B504460D46FA
:100770000026FFF7F2FE2046FFF79BFFFFF72EFF54
:100780002846FFF796FFFFF729FFFFF7E6FE44F044
:100790000100FFF78EFFFFF721FF0020FFF7B6FFF4
:1007A0000646FFF7FCFE304670BD2DE9F0410746D6
:1007B000884615461E460024FFF7CFFE3846FFF751
:1007C00078FFFFF70BFF4046FFF773FFFFF706FFC9
:1007D000FFF7C3FE47F00100FFF76BFFFFF7FEFED8
:1007E00000BF0CE0681EA04204D10020FFF78EFF7E
:1007F000305503E00120FFF789FF3055641CAC42FF
:10080000F0DBFFF7CCFEBDE8F0812DE9F0410746B3
:10081000884616461D460024FFF79FFE3846FFF720
:1008200048FFFFF7DBFE8820FFF743FFFFF7D6FE08
:10083000182600BF0CE0701EA04204D10020FFF774
:1008400065FF285503E00120FFF760FF2855641C71
:10085000B442F0DBFFF7A3FE642000F059FCFFF781
:100860007CFE7620FFF725FFFFF7B8FEA120FFF7FB
:1008700020FFFFF7B3FE0020FFF748FF2146641C6E
:100880006854FFF78CFE642000F042FCFFF765FE21
:100890007620FFF70EFFFFF7A1FEE120FFF709FF2B
:1008A000FFF79CFE20260CE0701EA04204D1002021
:1008B000FFF72CFF285503E00120FFF727FF2855FD
:1008C000641CB442F0DBFFF76AFEBDE8F0812DE95D
:1008D000F04188B00746884616461C460025FFF7BB
:1008E0003CFE3846FFF7E5FEFFF778FE8820FFF76D
:1008F000E0FEFFF773FE182600BF0EE0701EA84250
:1009000005D10020FFF702FF0DF8050004E00120EB
:10091000FFF7FCFE0DF805006D1CB542EEDBFFF79E
:100920003EFE642000F0F4FBFFF717FE3846FFF7A9
:10093000C0FEFFF753FEA120FFF7BBFE06E000005C
:1009400000040240A082404200804042FFF746FE81
:100950000020FFF7DBFE29466D1C0DF80100FFF7B4
:100960001EFE642000F0D4FBFFF7F7FD3846FFF7CA
:10097000A0FEFFF733FEE120FFF79BFEFFF72EFE00
:1009800020260EE0701EA84205D10020FFF7BEFE13
:100990000DF8050004E00120FFF7B8FE0DF8050092
:1009A0006D1CB542EEDBFFF7FAFD9DF800009DF8E7
:1009B000011040EA012020809DF802009DF80310FC
:1009C00040EA012000B260809DF804009DF8051007
:1009D00040EA012000B2A0809DF806009DF80710B3
:1009E00040EA0120E0809DF808009DF8091040EAE7
:1009F000012000B220819DF80A009DF80B1040EA0A
:100A0000012000B260819DF80C009DF80D1040EAB5
:100A1000012000B2A0819DF80E009DF80F1040EA61
:100A2000012000B2E0819DF810009DF8111040EA0D
:100A3000012000B220829DF812009DF8131040EAB8
:100A4000012000B260829DF814009DF8151040EA64
:100A5000012000B2A0829DF816009DF8171040EA10
:100A6000012000B2E0829DF8180020769DF8190060
:100A70009DF81A1040EA012000B260839DF81B0027
:100A800020779DF81D0000F00F009DF81C1040EA33
:100A90000110E0839DF81E0000019DF81D1040EA42
:100AA000111020849DF81F0084F8220008B0BDE8D2
:100AB000F08170B506460C461546FFF74EFD3046F0
:100AC000FFF7F7FDFFF78AFD2046FFF7F2FDFFF77E
:100AD00085FD2846FFF7EDFDFFF780FDFFF75FFD81
:100AE00070BD2DE9F04180460D4616461F46002494
:100AF000FFF733FD4046FFF7DCFDFFF76FFD2846AB
:100B0000FFF7D7FDFFF76AFD00BF05E0385DFFF78F
:100B1000D0FDFFF763FD641CB442F7DBFFF73FFD38
:100B2000BDE8F08100B589B001AB18228821EC2026
:100B3000FFF73BFE07AB0122A121EC20FFF735FEBA
:100B40000DF11D030722E121EC20FFF72EFE9DF899
:100B500004009DF8051040EA0120FE4908809DF838
:100B600006009DF8071040EA012000B2FA4908800B
:100B70009DF808009DF8091040EA012000B2F749ED
:100B800008809DF80A009DF80B1040EA0120F44906
:100B900008809DF80C009DF80D1040EA012000B27D
:100BA000F04908809DF80E009DF80F1040EA0120E2
:100BB00000B2ED4908809DF810009DF8111040EA40
:100BC000012000B2E94908809DF812009DF8131039
:100BD00040EA012000B2E64908809DF814009DF823
:100BE000151040EA012000B2E24908809DF8160085
:100BF0009DF8171040EA012000B2DF4908809DF8F7
:100C000018009DF8191040EA012000B2DB49088065
:100C10009DF81A009DF81B1040EA012000B2D84947
:100C200008809DF81C0040B2D64908709DF81D0050
:100C30009DF81E1040EA012000B2D34908809DF8BB
:100C40001F0040B2D14908709DF8210000F00F004C
:100C50009DF8201040EA0110CD4908809DF822003F
:100C600000019DF8211040EA1110CA4908809DF842
:100C7000230040B2C849087009B000BD70B50446F1
:100C80000D462A462146EC20FFF713FF70BD2DE9E3
:100C9000FC5F01240125012603274FF005084FF0D2
:100CA00000094FF0000A600140EA850040EA070BA6
:100CB0004FEA481040EA890040EA0A000190009695
:100CC000F2200099FFF7DAFF5946F420FFF7D6FF2C
:100CD000F5200199FFF7D2FFFFF724FFBDE8FC9F45
:100CE0001CB56B460822F721EC20FFF75EFD9DF84E
:100CF000000000039DF8011040EA01109DF8021069
:100D000040EA2110A54908609DF8030000039DF802
:100D1000041040EA01109DF8051040EA2110A04996
:100D200008609DF807009DF8061040EA01209D49E3
:100D300008601CBD30B50146CC10864D2D88A4EB53
:100D40004504854DB5F900506C43E212814C24886E
:100D5000C4EB211464432413804DB5F900506C4357
:100D6000A313D418904D2C602C46246804EB840403
:100D70008034201230BD30B504468B4800684FF4F3
:100D80007A45C5EB600188104043C012794DB5F932
:100D9000005000FB05F37648B0F90000484303EB30
:100DA00040039810714D2D8800EB05438810404397
:100DB00040136D4DB5F900506843C5106948B0F94E
:100DC0000000484305EB6000811401F50040644DCC
:100DD0002D886843C11309B9002030BDC4F58010C7
:100DE000A0EB233040F6354500FB05F2B2F1004F91
:100DF00003D25000B0FBF1F202E0B2FBF1F042008E
:100E0000D0084043400B5E4DB5F9005068430113D4
:100E100090085A4DB5F9005068434313C818564D11
:100E2000B5F90050284402EB20121046D5E730B542
:100E300002465D480068A0F596319003544B1B882C
:100E4000A0EB0350534BB3F9003003FB110000F546
:100E50008040C313504890F90000484380124B4C27
:100E600094F900404C434FF4004505EBE424604303
:100E7000AC0104EBA020444CB4F90040604300F501
:100E80000050801303FB00F1C8134043C0113D4BD9
:100E900093F900305843A1EB2011002901DA00201A
:100EA00000E008460146B1F1C85F02DD4FF0C850CE
:100EB00000E008460146081330BD10B5FFF734FBCB
:100EC000142000F06DF9FFF7E2FE10BD70B52DEDB6
:100ED0000A8B044694ED000AB5EEC00AF1EE10FA52
:100EE00079DD94ED000ADFED310A80EE801A11EE13
:100EF000105A284603F01CFE41EC1C0B9FED2C1BE6
:100F0000B0EE4C0AF0EE6C0A02F012F9B0EE40BA04
:100F1000F0EE60BA9FED280B53EC102B51EC1B0B3D
:100F200003F01CFD41EC1A0B9FED250B53EC102B2D
:100F300003F008FB41EC190B9FED230B53EC102B36
:100F400003F042F941EC180B03F050F800EE100AE0
:100F50003EE040E024000020260000202800002081
:100F60002A0000202C0000202E000020300000204D
:100F7000320000203400002036000020380000201D
:100F80003A0000203C0000203E00002040000020ED
:100F90004200002044000020460000201C000020E9
:100FA000180000201400002020000020CDEC7D441B
:100FB00028610C878A5AC83F000000000000F03FFB
:100FC0000000006066A2724000000080BE9F7A3F71
:100FD000BDEC0A8B70BD9FED370ABDEC0A8B70BD6E
:100FE0002DE9F0472DED088B04460D4616461F46A9
:100FF0009FED310BB0EE408AF0EE608A9FED2E0B34
:10100000B0EE409AF0EE609A9FED2B0BB0EE40AA46
:10101000F0EE60AAFFF764FE29480068FFF78AFE39
:10102000804628480068FFF7A6FE814626480068EB
:10103000FFF7FDFE8246404603F01EFA41EC1B0B13
:101040009FED220B53EC102B03F0BEF841EC180B74
:10105000484603F028FA41EC1B0B9FED1C0B53ECA8
:10106000102B03F0B1F841EC190B504603F01BFABA
:1010700041EC1B0B9FED170B53EC102B03F0A4F866
:1010800041EC1A0B51EC180B02F0B0FF286051EC48
:10109000190B02F0ABFF206051EC1A0B02F0A6FF17
:1010A00030602046FFF712FF87ED000ABDEC088B89
:1010B000BDE8F08700000000000000000000000014
:1010C000180000201C000020140000200000000078
:1010D00000005940000000000000904010B5044698
:1010E0006FF0040000F094F9E11704EB5171C1F3C3
:1010F000C701394A11701046007800EB4001C1EB7E
:10110000C0104FF6FF7101EAC0003449088010BDDD
:101110000146314A12784A434FF0E0235A610022D7
:101120009A611A46126942F001021A6100BF4FF03B
:10113000E022106900F001021AB100F48032002AA6
:10114000F5D04FF0E022126922F001024FF0E023C7
:101150001A6100229A6170470146204A12884A4368
:101160004FF0E0235A6100229A611A46126942F058
:1011700001021A6100BF4FF0E022106900F0010285
:101180001AB100F48032002AF5D04FF0E022126943
:1011900022F001024FF0E0231A6100229A617047A9
:1011A00070B504464FF4077094FBF0F0C6B24FF4EC
:1011B000077094FBF0F100FB114085B205E04FF49D
:1011C0000770FFF7C9FF701EC6B2002EF7D115B128
:1011D0002846FFF7C1FF70BD480000204A000020EC
:1011E000014600BF704700BF4C4A128802F040021F
:1011F000002AF9D0C2B2494B9A80704710B588B026
:1012000004460121084600F045FC0121102000F0B1
:101210009BFC07220921424800F029FA07220A21F3
:101220003F4800F024FA4FF4C060069002208DF889
:101230001C008DF81D0000208DF81E0001208DF887
:101240001F0006A9364800F087F902940020ADF887
:101250000C00ADF80E00ADF81000ADF814000C2035
:10126000ADF8120002A92D4800F0CFFD01212B4856
:1012700000F053FE012240F22551284800F003FF00
:1012800025208DF8040003208DF805008DF8060058
:1012900001208DF8070001A800F06DF808B010BD1E
:1012A00010B540F225511D4800F028FF10B31B482F
:1012B00000F062FEC4B21B48008800F40040C8B9C8
:1012C0001848008800F4804060B10A2C03D0002048
:1012D0001449088020E01348008840F40040114978
:1012E000088019E00D2C06D10E48008840F480409B
:1012F0000C49088010E00B480088C0F30D000A4933
:101300000C5408480088401C06490880084600889C
:10131000C72801DD0020088010BD0000001001403A
:10132000000002405000002064000020094880476F
:1013300009480047FEE7FEE7FEE7FEE7FEE7FEE7B7
:10134000FEE7FEE7FEE7FEE704480549054A064BCF
:1013500070470000B50300088901000890010020D3
:1013600090070020900300209003002032490143A1
:10137000324A1160704770B5002100230F22C478F3
:101380001CB32E4C246804F4E064C4F5E064C4F398
:101390000721C1F10404E3B20A4144789C40E1B260
:1013A0008478144021430C07210E254C05786155A3
:1013B000047804F01F050124AC4005786D11AD00E0
:1013C00005F1E025C5F8004109E0047804F01F05A7
:1013D0000124AC401B4D0678761145F8264070BDBF
:1013E000194A0A400243154B1B1F1A60704739B156
:1013F000124A121D12680243104B1B1D1A6006E0B0
:101400000E4A121D126882430C4B1B1D1A60704756
:10141000042808D14FF0E021096941F004014FF0A0
:10142000E022116107E04FF0E021096921F0040199
:101430004FF0E022116170470000FA050CED00E06A
:1014400000E400E080E100E080FFFF1F10B50446EB
:101450009848844208D10121084600F086FB00210B
:10146000012000F082FB76E09348844208D10121FC
:10147000022000F07AFB0021022000F076FB6AE0F7
:101480008E48844208D10121042000F06EFB002127
:10149000042000F06AFB5EE08948844208D1012103
:1014A000082000F062FB0021082000F05EFB52E003
:1014B0008448844208D10121102000F056FB00210D
:1014C000102000F052FB46E07F48844208D1012101
:1014D000202000F04AFB0021202000F046FB3AE0EB
:1014E0007A48844208D10121402000F03EFB0021CF
:1014F000402000F03AFB2EE07548844208D10121DB
:10150000802000F032FB0021802000F02EFB22E042
:101510007048844208D10121801500F026FB00218B
:10152000A01500F022FB16E06B48844208D101218F
:10153000401500F01AFB0021601500F016FB0AE0D0
:101540006648844207D10121001500F00EFB0021FE
:10155000201500F00AFB10BDF0B50A46002100235B
:10156000002400BF3DE0012505FA01F3156805EAF6
:1015700003049C4234D105684F000326BE40B543A6
:10158000056015794E00B54006683543056015794C
:10159000012D02D01579022D16D185684F00032642
:1015A000BE40B543856055794E00B54086683543E9
:1015B0008560456801268E40B5434560456896794B
:1015C0008E40B6B235434560C5684F000326BE4025
:1015D000B543C560D5794E00B540C6683543C56092
:1015E000491C1029BFD3F0BD4FF6FF7101600021E7
:1015F000017141718171C171704708B54FF480323A
:101600000092009A0A430092009AC261C161009A56
:10161000C261C2690092C269009208BD0246002000
:1016200013690B400BB1012000E000207047014618
:10163000086980B270470246002053690B400BB125
:10164000012000E0002070470146486980B27047E1
:1016500001837047418370470AB1018300E04183F1
:1016600070474161704742694A4042617047F0B536
:10167000002300244D07ED0E02FA05F3CE1000F111
:10168000200555F826504E07F70E0F26BE40B543ED
:10169000CF1000F1200646F82750CE1000F12005AB
:1016A00055F8265045EA0304CE1000F1200545F810
:1016B0002640F0BD00000240000402400008024045
:1016C000000C0240001002400014024000180240CA
:1016D000001C02400020024000240240002802407A
:1016E000F948006840F00100F74908600020F64919
:1016F00008310860F4480068F4490840F24908607D
:10170000F348091D0860F348EF4984310860F04848
:101710001038091D0860EC48006820F48020EA4970
:1017200008600020E8490C310860E7498C31086006
:1017300070470021E44A921C1170114608707047EE
:1017400010B501460022002300204A11012A02D1CF
:10175000DD4C236808E0022A03D1DB4C7034236897
:1017600002E0D94C7434236801F01F020124944034
:101770001C400CB1012000E0002010BD38B5002055
:1017800000900024002500BF3120FFF7D9FF054657
:101790000098401C00900098B0F5A04F01D0002D9B
:1017A000F2D03120FFF7CCFF08B1012400E0002483
:1017B000204638BD01460020C34A106820F0F800DA
:1017C00040EAC10010607047C349086070470021BB
:1017D000BD4A703211701170012802D004280AD15C
:1017E00004E00121B84A7032117005E00521B64AC3
:1017F0007032117000E000BF00BF7047B749086049
:10180000704770B5049C41EA82150126C6EB530669
:1018100045EA0645054345EA0465AB4E361D35608D
:1018200070BDAD4908667047820142EA0172A64B5D
:1018300084331A607047A8498866704710B58301E1
:1018400043EA016343EA02739F4C8834236010BD6E
:10185000A14908677047A049C86470470246002044
:10186000994B0833186820F0EC6042EA01031843F2
:10187000954B08331860704702460020924B08339E
:10188000186820F0784042EA010318438E4B083371
:1018900018607047014600208B4A0832106820F01B
:1018A000030008431060704787480830006800F064
:1018B0000C00704701460020834A0832106820F06F
:1018C000F000084310607047014600207E4A08324D
:1018D000106820F4E0500843106070470146002073
:1018E000794A0832106820F4604040EAC100106074
:1018F0007047F0B5002100220024022500260223B3
:10190000714F08373F6807F00C0121B1042905D059
:10191000082937D105E0724F076036E0714F076044
:1019200033E0694F3F1D3F68C7F38056664F3F1D48
:101930003F6807F03F036EB16A4FB7FBF3F7DFF87C
:1019400088C10CF1040CDCF800C0CCF3881C07FB48
:101950000CF40CE0624FB7FBF3F7DFF86CC10CF14D
:10196000040CDCF800C0CCF3881C07FB0CF4564FC9
:101970003F1D3F68C7F301477F1C7D00B4FBF5F7AF
:10198000076002E0564F076000BF00BF4E4F0837A8
:101990003F6807F0F0010909534F7A5C0768D740A8
:1019A0004760494F08373F6807F4E051890A4E4FB6
:1019B0007A5C4768D7408760434F08373F6807F431
:1019C0006041490B484F7A5C4768D740C760F0BD1B
:1019D000002100F44072B2F5407F0AD13A4A083241
:1019E000116821F4F811414A02401143364A083285
:1019F0001160354A70321268C0F30B031A43324B40
:101A000070331A607047354944390860704733496C
:101A10004039086070473649086070470146002029
:101A2000294A8C32106820F01F004A1E1043264AB3
:101A30008C321060704701460020234A8C321068B7
:101A400020F4F8504A1E40EA02201F4A8C321060EF
:101A50007047014600201C4A8C32106820F4401068
:101A600008431060704701460020174A8C32106806
:101A700020F4400008431060704701460020124ADD
:101A80008C32106820F440300843106070471949C8
:101A90000860704739B10C4A3032126802430A4B71
:101AA00030331A6006E0084A303212688243064B2F
:101AB00030331A607047F9B1034A34321268024376
:101AC000014B34331A601CE000380240FFFFF6EA95
:101AD000103000240030002000004742800E4742B2
:101AE0000024F40000127A0052000020FFFCFF0FD7
:101AF0005C014742E01147428F4A126882438E4B95
:101B00001A60704739B18C4A121D126802438A4B21
:101B10001B1D1A6006E0884A121D12688243864B1C
:101B20001B1D1A60704739B1834A0C321268024398
:101B3000814B0C331A6006E07F4A0C3212688243F4
:101B40007D4B0C331A60704739B17B4A10321268F2
:101B50000243794B10331A6006E0774A103212685C
:101B60008243754B10331A60704739B1724A243A78
:101B700012680243704B243B1A6006E06E4A243A16
:101B8000126882436C4B243B1A60704739B16A4A31
:101B9000203A12680243684B203B1A6006E0664A0E
:101BA000203A12688243644B203B1A60704739B177
:101BB000614A1C3A126802435F4B1C3B1A6006E004
:101BC0005D4A1C3A126882435B4B1C3B1A607047AB
:101BD00039B1594A143A12680243574B143B1A6000
:101BE00006E0554A143A12688243534B143B1A607C
:101BF000704739B1504A103A126802434E4B103BBD
:101C00001A6006E04C4A103A126882434A4B103B75
:101C10001A60704739B1484A1C3212680243464B79
:101C20001C331A6006E0444A1C3212688243424B5D
:101C30001C331A60704739B13F4A203212680243A0
:101C40003D4B20331A6006E03B4A20321268824343
:101C5000394B20331A60704739B1374A2432126841
:101C60000243354B24331A6006E0334A24321268AB
:101C70008243314B24331A60704739B12E4A2C32DB
:101C8000126802432C4B2C331A6006E02A4A2C328D
:101C900012688243284B2C331A60704739B1264AA8
:101CA000303212680243244B30331A6006E0224A75
:101CB000303212688243204B30331A60704701285B
:101CC00008D11D493C31096841F008011A4A3C32EB
:101CD000116007E018493C31096821F00801164AF3
:101CE0003C321160704739B1134A273A12780243E7
:101CF000114B273B1A7006E00F4A273A12788243AD
:101D00000D4B273B1A7070470B484030006840F07D
:101D10008070094940310860704701460020064A3A
:101D2000283A12680A400AB1012000E000207047FA
:101D300001492639087070473438024010B504460E
:101D4000FA48844208D101211020FFF752FF0021F8
:101D50001020FFF74EFF57E0F548844209D10121DA
:101D60004804FFF735FF00214FF40030FFF730FF44
:101D70004AE0F048844209D101218804FFF728FF96
:101D800000214FF48020FFF723FF3DE0EA48844222
:101D900009D10121C804FFF71BFF00214FF40020E7
:101DA000FFF716FF30E0E548844209D1012108051C
:101DB000FFF70EFF00214FF48010FFF709FF23E02B
:101DC000DF48844208D101212020FFF712FF0021C3
:101DD0002020FFF70EFF17E0DA48844209D10121E5
:101DE0008807FFF7F5FE00214FF08040FFF7F0FE77
:101DF0000AE0D548844207D101214005FFF7E8FEFB
:101E000000216005FFF7E4FE10BD2DE9FF47054600
:101E10000E460024A14600BFA046B08900B100BF15
:101E20002C8A24F44054F08804432C82AC8941F27B
:101E30000C608443B08831890843718908430443A6
:101E4000AC81AC8A24F44074B0890443AC82684607
:101E5000FFF74FFDB548854202D0B948854202D10F
:101E6000DDF80C9001E0DDF80890A88900F400404E
:101E700040B109EBC90000EB091031684900B0FB23
:101E8000F1F707E009EBC90000EB091031688900A0
:101E9000B0FBF1F76420B7FBF0F0040120096421E6
:101EA00001FB1078A88900F4004040B1322000EB1B
:101EB000C800B0FBF1F000F00700044308E0322056
:101EC00000EB08106421B0FBF1F000F00F000443B8
:101ED0002C81BDE8FF874FF41651016000218180FD
:101EE000C18001810C21418100218181704710B5A1
:101EF00002460020108A20F470600B884C8823432F
:101F00008C882343CC8823431843108210BD0021C2
:101F1000018041808180C180704721B1828942F473
:101F20000052828104E082894DF6FF731A4082815B
:101F30007047028B02F47F420283028B0A430283C2
:101F4000704721B1828942F40042828103E0828994
:101F5000C2F30E028281704721B1828A42F400628C
:101F6000828204E0828A4FF2FF731A4082827047B5
:101F7000C1F308028280704701468888C0F30800D8
:101F80007047028A4FF6F0731A400282028A0A43AF
:101F90000282704721B1828942F00202828104E00C
:101FA00082894FF6FD731A408281704782894FF211
:101FB000FF731A40828182890A4382817047028AB4
:101FC0004FF6DF731A400282028A0A430282704788
:101FD00021B1028A42F48042028204E0028A4BF676
:101FE000FF731A4002827047818941F001018181AB
:101FF000704721B1828A42F00802828204E0828A1C
:102000004FF6F7731A4082827047028BD2B2028376
:10201000028B42EA01220283704721B1828A42F098
:102020002002828204E0828A4FF6DF731A408282A5
:10203000704721B1828A42F01002828204E0828AD3
:102040004FF6EF731A4082827047828A4FF6FB7315
:102050001A408282828A0A438282704721B1828A30
:1020600042F00202828204E0828A4FF6FD731A4037
:10207000828270471AB1838A0B43838202E0838A8B
:102080008B4383827047F0B5034600240026002569
:10209000002040F66A17B94200D100BF1846C1F3CC
:1020A000421401F01F06012707FA06F5012C01D1A1
:1020B0000C3004E0022C01D1103000E014301AB1D1
:1020C00007682F43076002E00768AF430760F0BD71
:1020D00002460020B1F5007F00D100BF13880B40FD
:1020E0000BB1012000E00020704701F40072B2F54E
:1020F000007F00D100BFCA430280704770B502461E
:10210000002400230025002040F66A16B14200D1C9
:1021100000BFC1F3421501F01F03012606FA03F3C5
:10212000012D13D19689334017E0000000100140C3
:102130000044004000480040004C00400050004077
:102140000014014000780040007C0040022D02D1C4
:10215000168A334001E0968A33400C12012606FAB3
:1021600004F41688344013B10CB1012000E00020C3
:1021700070BD10B50022002340F66A14A14200D1C0
:1021800000BF0A1201249440A3B2DC43048010BDB6
:10219000704700000FB4044910B503AA029800F07C
:1021A00055FA10BC5DF814FB4C0000202DE9F041FD
:1021B0000E460446002020622046E168884730B37E
:1021C000252805D0D4E901219047206A401CF2E778
:1021D000E168204600278847050018D0A5F1410096
:1021E000192802D820354FF4006732462946204688
:1021F0002760FEF703F840B1012804D0F61D26F051
:1022000007060836D8E7361DD6E72846DAE7206AFB
:10221000BDE8F081704770477047704710B500F017
:102220002BFA006810BD10B5044600F025FA0460D2
:1022300010BD70472DE9FF4F0C461E464FF0FF378B
:102240008BB0D2E90001DDF860800A908A46C1F3C4
:102250000A5505B93D46002108464FF00000BAF185
:10226000000F00F4400005DA00EB80004FF440015D
:1022700001EA50004FEA9059B9F1010F00DDB9466B
:102280000A9850EA4A000ED044F61050A5F2FF35E5
:1022900045432F14B8F1000F1ED07542291E1EDDD4
:1022A000C9F100021CE0B8F1010F4FF0000001D0AD
:1022B000302103E0F24305E02154401CB042FBDB37
:1022C00030460022002121540B99C1F80880C1E951
:1022D00000200FB0BDE8F08FBD1B6D1CDEE74A4645
:1022E00000DA694206A800F069FA06AB93E8070035
:1022F00003AB83E8070050460A9900F043FB8DE8E2
:102300000700A0F500501F3800900398002D09DD4C
:1023100042F21F014A46084403A90390684600F0B0
:10232000A2FD08E0A0F500504A461F3803A903901B
:10233000684600F0ACFD8DE807000004000C03D0F7
:102340004FF0FF30410800E01046B8F1000F03D015
:102350000022009215461EE0751E05D400F090F98B
:10236000303262556D1EF9D5B3460122084302D0C2
:1023700000227F1C04E02078302801D100227F1E3B
:10238000002A099786D01DE0112D07DA00F078F9B0
:10239000303262556D1C50EA0102F5D1084302D07B
:1023A0000098C8B10EE00021681E05E0235C625C65
:1023B00063542254401E491C8142F7DBAB46A81BE4
:1023C000401E0990002004F80B000B98099AC0F8F1
:1023D0000880C0E9002B7CE711264FF0000859E780
:1023E0002DE9F04F88460446D21D22F0070191B036
:1023F000D1E90001CDE90A0100F07FFE02460B9809
:10240000C00F01D02D2007E02068810701D52B20C7
:1024100002E0202101EAC000032A099001D0072A26
:1024200005DB03464146204600F088F90BE12078A1
:10243000800601D5E06900E00620B8F1650F81460D
:1024400006D0B8F1660F18D0B8F1670F70D131E03F
:102450000020B9F1110F009001DB112301E009F117
:1024600001030AAA01A90CA8FFF7E4FEDDE90C703C
:10247000002609F10105834647E001204B46009004
:102480004FF000470AAA01A90CA8FFF7D3FEDDE927
:102490000DB00C995D46002610B909F101000D1828
:1024A000B9EB050003D4C0F1FF3609F10105A5EB36
:1024B00009002BE0B9F1010F01DA4FF0010900200A
:1024C000B9F1110F0090484601DD112300E00346E9
:1024D0000AAA01A90CA8FFF7ADFEDDE90C704D4674
:1024E00000268346207800070AD4AB4500DA5D4613
:1024F00001A8012D04DD411911F8011C302907D074
:102500004F4502DA17F1040F04DA012082460FE08A
:102510006D1EEEE7002F02DCED1B3E4403E0781C4D
:10252000A84200DD7D1CB81B00F1010A4FF00047F6
:102530002078000703D4AA4501DB4FF0FF3A0021C1
:10254000B7F1004F0DF143088DF8431024D002205D
:102550002B23002F01DA7F422D230A21021EA0F136
:10256000010000DC5FB197FBF1FC97FBF1F201FB8E
:102570001C7C17460CF1300C08F801CDEEE7A8F1F1
:10258000010003702188090501D5452100E065217E
:10259000A0F1010800F8011C09980FA9A1EB080798
:1025A000FF1D00B10120411901EBEA70A169384417
:1025B000081A401EA0612078C00602D42046AFF35E
:1025C0000080099828B1D4E901219047206A401C75
:1025D00020622078C00622D52046AFF300801EE09E
:1025E000002E04DBB34502DD01A8805D00E0302051
:1025F000D4E901219047206A401C2062761CAAF190
:1026000001005FEA000A0AD100F032F8C0680168F0
:10261000405CD4E901219047206A401C2062281EBA
:10262000A5F10105DCDC07E0D4E9012118F8010B74
:102630009047206A401C2062381EA7F10107F3DC96
:102640002046AFF30080032011B043E6074B70B57E
:102650000D467B4400F05FF80446284600F01CF964
:1026600010B14FF0FF3070BD204670BD91EBFFFF01
:10267000004870474C010020004870472C010020A2
:1026800030B5B0F10A024FEA900E71F100034EEA44
:10269000817EB0EB0E0061EB91014FEA101E4EEA15
:1026A000017E10EB0E0041EB11114FEA102E4EEAA5
:1026B000016E10EB0E0041EB11214FEA104E4EEA75
:1026C000014E10EB0E0041EB1141401841F10001A9
:1026D0004FEAD00040EA41704FEAD10110EB80058B
:1026E0004FEA810444EA907444EB01046D1944EB11
:1026F0000404521BA3414FF0000348BF0A3200D527
:1027000030BD401C41F1000130BD000001694A1C90
:1027100002610878704700B58FB0CDE90131002122
:10272000059105497944CDE9031011466846FFF744
:102730003DFD0FB000BD0000E5FFFFFF2DE9F041BA
:102740001F46044603260168072A01F4006004DBE3
:1027500008B116A505E016A503E008B115A500E02F
:1027600015A521F010002060A069C01EA0610FB166
:10277000401EA0612046AFF300804FB1D4E9012193
:1027800038469047206A401C2062C01C206206E048
:10279000206AFAE7D4E9012115F8010B9047761E6B
:1027A000F8D22046AFF30080BDE8F0814E414E00E4
:1027B0006E616E00494E4600696E66002DE9F04775
:1027C000814616468AB0334878440DC88DE80D001E
:1027D00030487844801C03AC0DC884E80D0041F6F5
:1027E0009B300844372190FBF1F290FBF1F5A5F105
:1027F000800501FB12041B3C02D56442012000E06D
:102800000020DFF890A080460027FA44AAF1BE0A13
:102810000DE0E00709D03246684607EB47010AEBB6
:10282000810100F034FB8DE8070064107F1C002C50
:10283000EFD1184F7F44AC3F18E0E80714D007EB06
:1028400004100DF1180A90E80E008AE80E00C06826
:10285000F04201D198190890324606A903A800F069
:1028600016FB03AB83E807006D10641C002DE4D158
:1028700032466946B8F1000F03A802D000F0F3FA1F
:1028800001E000F004FBC9E90001C9F808200AB022
:10289000BDE8F08760260000007B00F080007047F4
:1028A000004870472C0100207546FFF7F9FFAE463F
:1028B00005006946534620F00700854618B020B54C
:1028C000FEF742FDBDE820404FF000064FF0000744
:1028D0004FF000084FF0000B21F00701AC46ACE8C8
:1028E000C009ACE8C009ACE8C009ACE8C0098D4635
:1028F000704710B50446AFF300802046BDE8104095
:10290000FDF798BC4FF0013C50F8042B51F8043B04
:102910009A4221D1A2EB0C03934313EACC1317D1B3
:1029200050F8042B51F8043B9A4215D1A2EB0C034A
:10293000934313EACC130BD150F8042B51F8043B0A
:102940009A4209D1A2EB0C03934313EACC13DBD0D8
:102950004FF00000704700BFD01A01BAB1FA81F100
:1029600001F0180122FA01F0CB40C1F12001DBB2E5
:10297000C0B2C01A2CFA01F3D11A914311EAC31163
:10298000E6D170475FEA400C08BF91F0000F4FEAB4
:102990008C234FEAC12243EA51514FEA1C5018BF21
:1029A00000F5F0404FEA300018BF41F000415FEA07
:1029B0006C5C00F02980BCF1FF3F08BF40F0804014
:1029C0007047130C06BF12044FF0100C4FF0000CB0
:1029D000130E04BF12020CF1080C130F04BF1201F6
:1029E0000CF1040C930F04BF92000CF1020CD30FF6
:1029F00004BF52000CF1010C11464FF00002A0F18F
:102A00001F00A0EB0C00704711F0004F08BF70478B
:102A100031F000413FF4D5AF0B0C06BF09044FF075
:102A2000100C4FF0000C0B0E04BF09020CF1080C47
:102A30000B0F04BF09010CF1040C8B0F04BF8900BC
:102A40000CF1020CCB0F04BF49000CF1010CCCF1CE
:102A50002003A0EB0C0022FA03F302FA0CF241EA85
:102A6000030100F10100704720F07F4C80EA030071
:102A700023F07F47ACEB070303F57C5300F00040E5
:102A800003F1FF032DE980494FEA154B09B44FEAE2
:102A9000144325EA0B4E24EA03480FF2042606EB02
:102AA000132749083E785FEA320203FB0667C7F541
:102AB000000707FB06F64FEA54374FEAD64606F101
:102AC000020607FB066CCCF1005C4FEA1C472CEABF
:102AD000074C07FB06F40CFB06F504EB15464FEA22
:102AE000961634BF00204FF000404FEAD13706FB66
:102AF00007FC4FEA1C4C0CFB0BF7D21B03FB0CF73B
:102B000061EB07010CFB0EF7B0EB074072EB1742CD
:102B10000CFB08F734BFA2EB0742B2EB074261EBB4
:102B200017414FEA0C444FEA910706FB07FC4FEAB6
:102B30001C4C0CFB0BF7B0EBC74072EB573203FB9E
:102B40000CF734BFA2EBC742B2EBC74261EB57317F
:102B50000CFB0EF7B0EBC70072EB57720CFB08F7DB
:102B600034BFA2EBC702B2EBC70261EB5771039F00
:102B70004FEA816141EA921104EBCC044FEAD1376C
:102B80004FEA826206FB07FC42EA90124FEA80603D
:102B90004FEA1C4C0CFB0BF7D21B03FB0CF761EB51
:102BA00007010CFB0EF7B0EB074072EB17420CFB72
:102BB00008F734BFA2EB0742B2EB074261EB1741C3
:102BC0004FEA8C554FEA910704EB9C2406FB07FC67
:102BD0004FEA1C4C0CFB0BF7B0EBC74072EB5732C3
:102BE00003FB0CF734BFA2EBC742B2EBC74261EB69
:102BF00057310CFB0EF7B0EBC70072EB57720CFBB2
:102C000008F734BFA2EBC702B2EBC70261EB577102
:102C100015EB4C254FEA816141EA92114FEA82623D
:102C20004FEAD13742EA901206FB07FC44F1000458
:102C30004FEA80604FEA1C4C0CFB0BF7D21B03FBE6
:102C40000CF761EB07010CFB0EF7B0EB074072EBE2
:102C500017420CFB08F734BFA2EB0742B2EB074266
:102C600061EB174115EB1C154FEA813141EA9241A6
:102C70004FEA823242EA90424FEA80304FEA0C76C5
:102C800044F1000448EA03434EEA0B484FF0000EBB
:102C9000B2EB080C71EB030724BF624639464EEBDA
:102CA0000E0E4FF0000B0018524149414BEB0B0B3D
:102CB000B2EB080C71EB03077BF1000B24BF6246FB
:102CC00039464EEB0E0E4FF0000B001852414941B1
:102CD0004BEB0B0BB2EB080C71EB03077BF1000B1A
:102CE00024BF624639464EEB0E0E51EA020718BF6A
:102CF00046F0010616EB0E7655F1000254F1000184
:102D000003D5BDE88901BDE80088BDE88901BDE8BB
:102D10000048B619524141EB0101A3F1010370478C
:102D200080807F7E7D7C7B7A797877767675747308
:102D3000727171706F6E6E6D6C6C6B6A6A696868C7
:102D4000676666656464636362616160605F5F5E5D
:102D50005E5D5D5C5C5B5B5A5A59595858575756D3
:102D60005655555554545353525252515150505038
:102D70004F4F4F4E4E4D4D4D4C4C4C4B4B4B4A4A8A
:102D80004A494949484848474747474646464545CE
:102D90004544444444434343434242424241414107
:102DA000002B26D4770021D01CB54FEA370703B497
:102DB0004FF010004FF010014FF000000FBCBDE8C5
:102DC00010400BF1010BBBF1010F08BF5FEA1707C1
:102DD00022BF12F1010211F101014FF0004143F154
:102DE000000300F0004043EA00007047F9D35708A1
:102DF000DAE746EA064613F1400F4FEA16461FDDB2
:102E000013F1200FDFBF16430A46002120335B4237
:102E1000C8D0C3F1200746EA064602FA07F74FEA90
:102E2000164646EA0706C3F1200722FA03F201FA22
:102E300007F721FA03F14FF0000342EA0702B1E776
:102E400046EA020646EA06464FEA164646EA010602
:102E5000BCBF46EA0646360C4FF000034FF00002B6
:102E60004FF000019EE72DE9C048934630B491E849
:102E7000380007C831EA400C48BF34EA430C03D598
:102E8000FFF7F2FDFFF78CFFF0BCBDE800882DE9ED
:102E9000C048934630B491E8380007C810F0804F1E
:102EA00008BF13F0804F03D100F005F8FFF778FF5B
:102EB000F0BCBDE8008820F07F4780EA030023F0E3
:102EC0007F4C07EB0C03A3F57C5300F00040A3F10B
:102ED000FE0392F0000F00F0B38095F0000F00F0B9
:102EE00077802DE901494FEA11404FEA144621EA63
:102EF000004800FB06FC24EA064708FB06F607FB31
:102F000008F800FB07F718EB06484CEB164C4FEAA5
:102F1000124B18EB07484FEA15464CEB174022EAD4
:102F20000B4E0BFB06FC25EA06470EFB06F607FBDD
:102F30000EFE0BFB07F71EEB064E4CEB164C4FF04C
:102F400000061EEB074E4CEB174B18EB0B0840F13D
:102F5000000018EB0E0B58EB000840F100008F1A30
:102F60004FF000013CBFC943661B14BFB5EB040C16
:102F700000213CBFC943F61B4FEA17444EEA8E0EB0
:102F800027EA04454FEA1C4704FB07622CEA074C7A
:102F900005FB07F70CFB05F604FB0CFC16EB0746DC
:102FA00042EB174216EB0C4642EB1C421BEB0606AB
:102FB00058EB0202414146EA9E0601D5BDE801896F
:102FC000B619524141EB0101A3F10103BDE80189AA
:102FD0004FEA14454FEA114724EA054621EA074C17
:102FE00005FB07F406FB07F70CFB06F105FB0CFCE1
:102FF00011EB074144EB17444FEA124711EB0C4128
:1030000044EB1C4422EA074C05FB07F206FB07F7DA
:103010000CFB06F605FB0CFC16EB074642EB1742D1
:1030200016EB0C4642EB1C456A1854F1000148BFF0
:103030007047B619524141EB0101A3F101037047FA
:1030400095F0000F37D04FEA11424FEA144721EABA
:10305000024624EA074C02FB07F106FB07F70CFBCC
:1030600006F402FB0CFC14EB074441EB17414FEA5A
:10307000154714EB0C4441EB1C4125EA074C02FBBD
:1030800007F506FB07F70CFB06F602FB0CFC16EB3C
:10309000074645EB174516EB0C4645EB1C4212194B
:1030A00051F1000148BF7047B619524141EB01018F
:1030B000A3F1010370474FEA14454FEA114724EA90
:1030C000054621EA074C05FB07F106FB07F70CFB59
:1030D00006F24FF0000605FB0CFC12EB074241EB39
:1030E000174112EB0C4251EB1C4148BF704792183C
:1030F00041EB0101A3F10103704703B401984100C2
:10310000009850EAC12018BF04204A0D18BF40F0B3
:10311000010040F2FF72B2EB515F08BF40F00200C5
:10312000012808BF052002B0704700000000000021
:103130002DE9F04D2DED040B2DED0E8B96B0DDE954
:103140002550279CDDF890A025F0004624F000488B
:10315000BAF1000F14BF0121002101EB4502FC4927
:1031600053184A1093422AD3002814BF0123002386
:1031700003EB44030B44F7498B4220D358EA000188
:103180009FEDF59B76D0DFF8D8B35D4503D1BAF15A
:10319000000F05D188E0BAF1000F08BF002100D070
:1031A000012101EB450111F5001F08D8002814BFCB
:1031B0000121002101EB440111F5001F0BD99DED08
:1031C000261B9DED240B16B0BDEC0E8B04B0BDE8A4
:1031D000F04D00F069BE0027002DBCBFE1498845D5
:1031E00021DAE1498845A8BF02271CDAC3451ADC69
:1031F000DE4901EB2851142908DDC1F1340220FA1F
:1032000002F101FA02F282420DD108E058B9C1F18F
:10321000140228FA02F101FA02F2424503D101F048
:103220000101C1F1020756EA0A0124D1002C22DA79
:10323000002D18BF022F01D0012F0AD00220FEF767
:10324000F2FF16B0BDEC0E8B04B0BDE8F04D00F0FF
:1032500013BE0220FEF7E7FF00F00EFE51EC100B4C
:1032600000F0B8FE41EC100B16B0BDEC0E8B04B0B4
:10327000BDE8F08D18E09FEDBEAB9FEDBF8B002841
:1032800071D1B848804522D105F1804010F58010F9
:1032900008BFBAF1000F07D0B3450ADC002CA8BF65
:1032A0009DED260BE0DA0DE0B0EE490AF0EE690A7A
:1032B000DAE7002C06DA9DED260B51EC100B00F03E
:1032C00089FE6FE0AE48784490ED000BCCE7D8451E
:1032D0004DD1002C48DA2EB186423AD1BAF1000F16
:1032E00042D126E0BAF1000F13D00220FEF79BFF77
:1032F00000F0F6FD8DED020B9DED240B8DED000B26
:1033000010EE900A039961F31E0003909DED020BED
:10331000AAE78DED02AB9DED240B1AEE901A10EE8C
:10332000900A8DED000B61F31E0003909DED020BE2
:103330009AE78DED028B9DED240B18EE901A10EE9E
:10334000900A8DED000B61F31E0003909DED020BC2
:103350008AE709DA9DED240B51EC190B53EC102B85
:1033600000F032FF1EE020E09DED240B7CE786425A
:103370001BDAB4F1804F0DD0A4F10050B0F1FF5032
:1033800013D1002D11DB9DED240B51EC100B00F03F
:10339000D3FD07E09DED240B53EC102B51EC100BEB
:1033A00000F0C2BC41EC100B5EE79DED240B51EC2C
:1033B000100B00F0B5FDBAF1000FCDE90E0142D1BE
:1033C0009FED710B46B3A6F1E040B0F17F600CD0E9
:1033D0005E4538D1002D00DAA7B3022F0CBF0120C3
:1033E0004FF0FF3001F048F8DCE7002D01DD002C44
:1033F0000DDA002D01DD002C1FDB002D16DA002C6C
:1034000014DB012F08BF9FED620B3FF42DAFB0EE30
:103410004A0AF0EE6A0A27E7022F18BF002D0CD0E7
:10342000012F0AD1002DFFF61FAF06E0002DB8BF17
:10343000002C08DA012F3FF417AFB0EE480AF0EE87
:10344000680A11E71BE0012000EBE57050EA070174
:1034500015D0791EB0EE498AF0EE698A084308BF9C
:103460009FED4D8B4E480025804570DD4D494E48FF
:10347000884514DDB0420DDB002C19DB2FE0012064
:10348000FEF7D1FE16B0BDEC0E8B04B0BDE8F04DDA
:1034900000F016BDB34502DC002C09DC1FE08642BB
:1034A00002DA002C1BDA03E05E452BDD002C16DD72
:1034B0000220FEF7B8FE00F013FD8DED020B53EC79
:1034C0001A2B51EC180B01F03DF8CDE900010399DE
:1034D000019861F31E0003909DED020BC4E60220EB
:1034E000FEF7A1FE00F00CFD10EE901A18EE900A07
:1034F0008DED020B8DED008B61F31E0003909DEDB1
:10350000020BB1E69DED0E0B53EC192B51EC100B99
:1035100001F024FA9FED260BCDE9080153EC102BA6
:103520009DED080B51EC100B01F00CF89FED221BE8
:1035300053EC112B01F03AF99DED081B53EC112BC4
:1035400001F000F89FED1E1B53EC112B3CE08CE0CA
:10355000FFFF1F00FFFF0F00000000000000F03F12
:103560000000F03F0000F07F0000404301FCFFFF3F
:10357000000000000000F07F0000000000000000DC
:10358000DE1A0000000000000000000000000080C3
:10359000000000000000F0FF000000000000F0BF8D
:1035A0000000E0410000F043FFFFEF3F000000009B
:1035B000000000000000D03F555555555555D53FEA
:1035C000000000000000E03F01F0F0F89DED080B66
:1035D00041EC1A0B53EC102B51EC100B00F0B2FF26
:1035E00053EC1A2B00F0AEFF41EC1A0B9FEDFE0BD3
:1035F00053EC102B9DED080B51EC100B00F0A2FFCB
:1036000041EC1B0B9FEDFA0B51EC1A0B53EC102BFA
:1036100000F098FF41EC1A0B9FEDF70B53EC102BC9
:103620009DED080B51EC100B00F08CFF53EC1A2BA6
:1036300001F094F941EC1A0B51EC1B0B53EC1A2BD3
:1036400000F006FD0690CDE906519DED060B53EC0A
:103650001B2B51EC100B01F081F953EC1A2B01F0EC
:10366000A5F841EC100B00F0A1B90020B6F5801FC1
:103670000EDA9FEDE30B53EC102B9DED0E0B51EC8E
:10368000100B00F05FFFCDE90E016FF034000E4625
:1036900000EB2650A0F2FF37C6F31300DA4940F0E2
:1036A0007F6646F040568842D8BF002408DDD749DF
:1036B0008142C8BF012403DC0024A6F580167F1CCC
:1036C000D348784400EBC4000F9690ED00CB9DEDFD
:1036D0000E0B53EC1C2B51EC100B01F03FF99DED40
:1036E0000E0B41EC1B0B53EC1C2B51EC100B00F0A0
:1036F000AFFC41EC100B51EC190B53EC102B00F00C
:1037000063FD41EC1D0B51EC1B0B53EC1D2B00F02A
:1037100019FF41EC1A0BBF488DED10AB78441095A2
:1037200090ED000B4FF0005040EA660000EB844043
:103730008DED080B00F5002009909DED080B53EC72
:103740001C2B51EC100B01F009F99DED0E1B53ECF5
:10375000112B01F02BF841EC100B53EC102B9DEDCD
:10376000100B51EC100B00F0EDFE9DED080B41EC41
:103770001C0B53EC102B9DED100B51EC100B00F0BB
:10378000E1FE53EC1B2B01F011F853EC1C2B01F064
:10379000E5F853EC1D2B00F0D5FE41EC1C0B53EC6F
:1037A0001A2B51EC1A0B00F0CDFE41EC1B0B9A4882
:1037B0000621B0EE4B0AF0EE6B0A784400F0E0FA16
:1037C000B0EE401AF0EE601AB0EE41DAF0EE61DAD7
:1037D00053EC1B2B51EC1B0B00F0B4FE53EC1D2BD8
:1037E00000F0B0FE9DED100B41EC1B0B53EC1A2BBF
:1037F00051EC100B00F02CFC53EC1C2B00F0A2FE43
:1038000053EC1B2B00F024FC9DED100B41EC1B0B2B
:1038100053EC102B51EC100B00F094FE41EC1D0BFF
:103820009FED7FEB53EC1E2B00F012FC53EC1B2B97
:1038300000F00EFC0890CDE908519DED080B53EC0B
:103840001E2B51EC100B01F089F853EC1D2B01F0ED
:1038500085F853EC1B2B00F0A9FF9DED080B41EC04
:103860001D0B53EC102B9DED100B51EC100B00F0C9
:1038700069FE41EC1B0B53EC1A2B51EC1D0B00F0B5
:1038800061FE9DED080B41EC1A0B53EC102B51EC33
:103890001C0B00F057FE53EC1A2B00F0D9FB41EC47
:1038A0001A0B51EC1B0B53EC1A2B00F0D1FB0C90B4
:1038B000CDE90C519DED0C0B53EC1B2B51EC100B77
:1038C00001F04CF853EC1A2B00F070FF41EC1B0B8D
:1038D0009FED550B53EC102B9DED0C0B51EC100B89
:1038E00000F030FE41EC1A0B9FED510B51EC1B0B1D
:1038F00053EC102B00F026FE41EC1B0B9FED4E0B02
:1039000053EC102B9DED0C0B51EC100B00F01AFE3C
:1039100053EC1B2B00F09CFB41EC100B4848784407
:1039200000EBC40090ED001B51EC100B53EC112B7D
:1039300000F08EFB41EC1B0B384600F09DFDCDE9FD
:10394000080153EC1B2B51EC1A0B00F081FB41ECEE
:10395000100B3C48784400EBC40090ED00CB51ECD8
:10396000100B53EC1C2B00F073FB9DED081B53EC6C
:10397000112B00F06DFB0690CDE906519DED080B73
:1039800053EC102B9DED060B51EC100B00F0E6FFF5
:1039900053EC1C2B00F0E2FF53EC1A2B00F0DEFF7F
:1039A00053EC1B2B00F002FF41EC100B9DED261B8E
:1039B00053EC102B8DED001B00959DED260B51EC6B
:1039C000100B00F0BFFD9DED000B41EC1A0B53EC0A
:1039D000102B9DED260B51EC100B00F0BFFF9DED61
:1039E000061B53EC112B2FE0000000604715F73F3A
:1039F000FE822B654715F73F44DF5DF80BAE543E62
:103A000000000000000040438E9803007AB60B00CF
:103A10005A160000881600009215000000000000F1
:103A20000000000000000840000000E009C7EE3F71
:103A3000FD033ADC09C7EE3FF5015B14E02F3EBE03
:103A40001E140000D813000000F07CFD53EC1A2B6C
:103A500000F0FEFA9DED060B41EC1A0B53EC102B17
:103A60009DED000B51EC100B00F06CFDCDE90C014D
:103A70009DED0C0B51EC1A0B53EC102B00F0E8FAF7
:103A8000CDE902010C46AA498C422FDB611A08439A
:103A900018D19DED0C0B53EC102B9DED020B51EC4E
:103AA000100B00F05BFF41EC1B0B9FEDA30B51ECE7
:103AB0001A0B53EC102B00F0CBFA53EC1B2B00F03D
:103AC0003FFE2DD20220FEF7AEFB00F009FA10EE09
:103AD000901A18EE900A8DED020B8DED008B61F3BC
:103AE0001E0003909DED020BFFF7BEBB944A24F02D
:103AF0000041914214D39349214408437FF4EFAC31
:103B00009DED0C0B53EC102B9DED020B51EC100BAB
:103B100000F024FF53EC1A2B00F012FE7FF6DFAC0E
:103B200024F000408849894A002601EB2051824256
:103B30002BDA481C4FF4801121FA00F02044844A0B
:103B4000C0F30A517A44A1F2FF3192ED000B814A91
:103B50008DED080BCA4020EA0202C0F3130040F4C6
:103B60008010C1F1140120FA01F60992002CB8BFAF
:103B700076429DED080B53EC102B9DED0C0B51EC98
:103B8000100B00F0EBFECDE90C019DED0C0B51ECA0
:103B90001A0B53EC102B00F05BFA9FED6F0B0890A3
:103BA000CDE9085153EC102B9DED080B51EC100B97
:103BB00000F0C8FC41EC1B0B9FED690B53EC102B84
:103BC0009DED080B51EC100B00F0BCFC9DED0C0BB7
:103BD00041EC1C0B53EC102B9DED080B51EC100B22
:103BE00000F0BCFE53EC1A2B00F0E0FD9FED5E1BD5
:103BF00053EC112B00F0A6FC53EC1C2B00F028FA20
:103C000041EC1A0B51EC1B0B53EC1A2B00F020FA71
:103C1000CDE902019DED020B53EC1B2B51EC100B77
:103C200000F09CFE53EC1A2B00F0C0FD9DED020B42
:103C300041EC1A0B53EC102B51EC100B00F082FCF2
:103C4000CDE908014A489DED080B0521784400F0B4
:103C500097F89DED081B51EC100B53EC112B00F065
:103C600071FC9DED021B53EC112B00F09FFDCDE983
:103C700006019DED020B53EC1A2B51EC100B00F0DA
:103C800061FC53EC1A2B00F0E3F99FED3B0B41EC88
:103C90001A0B53EC102B9DED060B51EC100B00F0A2
:103CA0005DFE9DED060B41EC1B0B53EC102B9DEDC7
:103CB000020B51EC100B00F045FC53EC1B2B00F0F9
:103CC00083FA53EC1A2B00F049FE9DED021B53ECD6
:103CD000112B00F043FE53EC192B00F067FDCDE9EA
:103CE000020101EB065001150029C8BF039015DC45
:103CF0009DED020B324651EC100B00F0C8FFFFF7B0
:103D0000FCF9042808BF00F0FBF832469DED020BD9
:103D100051EC100B00F0BBFFCDE902019DED020B51
:103D200051EC180B53EC102B00F00CFCFFF73ABBD6
:103D30000000904000000000FE822B654715973C74
:103D400000CC904000346F3F01FCFFFF0000E03FDB
:103D500060120000FFFF0F0000000000432EE63F4E
:103D6000396CA80C615C20BEEF39FAFE422EE63FAA
:103D700030110000000000000000000000000040C2
:103D800070B504462DED028B4D1E00EBC500B0EE64
:103D9000408AF0EE608A90ED000B35F0060017D0F7
:103DA00053EC182B51EC100B00F0CCFB41EC100B3A
:103DB0006D1E04EBC50090ED001B51EC100B53EC95
:103DC000112B00F045F941EC100B35F00600E7D15E
:103DD000022D36D0042D1CD0062D1CBFBDEC028B4D
:103DE00070BD53EC182B51EC100B00F0ABFB94EDB5
:103DF0000A1B53EC112B00F02BF953EC182B00F09D
:103E0000A1FB94ED081B53EC112B00F021F941ECC0
:103E1000100B53EC182B51EC100B00F093FB94EDAE
:103E2000061B53EC112B00F013F953EC182B00F088
:103E300089FB94ED040B53EC102B00F009F941ECD5
:103E4000100B53EC182B51EC100B00F07BFB94ED96
:103E5000021B53EC112B00F0FBF853EC182B00F075
:103E600071FB94ED001B53EC112B00F0F1F8BDEC4D
:103E7000028B41EC100B70BD9FED070B10B553EC9E
:103E8000102B9FED070B51EC100B00F09DF941EC4E
:103E9000100B10BD0000000000000000000000003A
:103EA000000000000000F03F10B553EC112B51EC66
:103EB000100B00F0CDF841EC100B10BD000000001D
:103EC0009FED050B10B553EC102B51EC100B00F0CF
:103ED0007BF941EC100B10BD000000000000000059
:103EE0009FED050B10B553EC102B51EC100B00F0AF
:103EF00029FB41EC100B10BD000000000000007019
:103F00009FED050B10B553EC102B51EC100B00F08E
:103F100019FB41EC100B10BD000000000000001068
:103F200082B0CDE9000121F0004001909DED000B31
:103F300002B051EC100B704700B52DED048B83B02F
:103F400041EC190B00F03EFC41EC180B18EE100A86
:103F500018EE901A8DED008B002818BF0120084341
:103F600020F00040C0F17F6000F1E040C00F14D0AD
:103F700019EE101A19EE900A8DED009B002918BF5A
:103F80000121084320F00040C0F17F6000F1E040D3
:103F9000C00F04BF0120FEF746F951EC180B03B027
:103FA000BDEC048B00BD000010B500290AD00878D4
:103FB000002807D005487844FEF7A4FC002801D06B
:103FC000002010BD0248784410BD0000AE0E000075
:103FD000A60E000081F00041704780F0004070475D
:103FE00021F00041704720F00040704721F000426E
:103FF000A2F16052B2F5801F01F0004328BFD2F158
:104000007F6C0BD95FEA001C43EAC20242EB50709E
:1040100018BF704728BF20F001007047B2F5801F1D
:10402000BCBF184670474FEA410C1CF5001F02D276
:10403000084600F0F3BD70B500F02EFB00000089CB
:10404000FFF7F6BF4FF00040A0F58000704700007A
:1040500010B591EA030F48BF83F0004300F1868456
:10406000841A71EB030C05D2121943EB0C03001BED
:1040700061EB0C01DFF824E14FEA1154A4EB135C6F
:104080001EEA430F18BF9EEA445F73D023EA0E0373
:10409000DCF1200E21EA045143F4801332D322FADA
:1040A0000CFE10EB0E0023FA0CFE41EB0E01CCF1DE
:1040B000200E03FA0EFE10EB0E0051F10001B1F5D7
:1040C000801FCCF1200E32D201EB045112FA0EF215
:1040D000BDE8104058BF7047401C38BF5FEA42023D
:1040E00018BF7047002814BF20F0010041F1000103
:1040F0004FEA410313F5001F38BF7047A1F1C041DB
:1041000000F018BB012A43EB0302ACF1200CDCF1F8
:104110001F0E32BF4FF0000E23FA0CF310EB03001A
:1041200041EB0451B4EB115FD0D0A1EB045101F588
:10413000801149085FEA300001EB04510ED350F1C1
:10414000000038BF12FA0EFE08D1BDE81040C9E7E2
:10415000401C38BF5FEA4202CAD1C3E7BDE8104045
:104160004FEA410313F5001F38BF7047A1F1C0416A
:1041700000F0E0BA9EEA445F08D011EA5E0FBDE8A5
:10418000104004BF01F0004100207047BDE810401E
:1041900070B500F081FA00BF64FBBE3E0000E0FF96
:1041A00002494FF0000000F040BD00BF0000F87F62
:1041B000491058BFC1F140415B1058BFC3F14043A3
:1041C0008B42EFF3008070472DE9C04130B4DFF837
:1041D000A0C23CEA111418BF3CEA131400F0EC80B2
:1041E00081EA03051CEA111444EAD57418BF1CEADD
:1041F000131500F0C780A4EB05044FF0004545EA15
:10420000C12145EAC32341EA505143EA525304F124
:104210007F74994204F500344FEAC0204FEAC2226D
:1042200008BF904200F09C804FEA13650FF24016E1
:10423000765D4FEA134506FB05F7C7F1807706FB6D
:1042400007F74FEAD737A7FB03687642C8F58038EF
:10425000A7FB06CE38BFA8F1010807FB08E64FF020
:10426000000EA6FB028CE6FB03CEDCF1000CCEF1C7
:10427000004E38BFAEF1010EA6FB0C584FF0000700
:104280004FF00005E6FB0E87A1FB08C6A0FB07CE9A
:1042900016EB0E0645F10005E1FB076515F1E04E52
:1042A0007EBFA4F580345FEA46066D4116F18007B3
:1042B00045F100054FEA17274FEA066647EA05670A
:1042C000A6F1DE46B6F1805F4FEA15251FD93846C4
:1042D00024F0010C05EBC471BCF1FE6F01EB0C1175
:1042E00002D8F0BCBDE8008124425CBF01F5801E0D
:1042F0009EEAC47F02D4F0BCBDE80081244238D4D9
:10430000F0BCA1F1C041BDE8004100F013BA4FEA92
:10431000D22242EA43524FEAD323A7FB02864FEA56
:10432000D02040EA415007FB03661EEA0E0F4FEA19
:10433000D12105FB026658BFA6EB0056B6EB00562E
:104340004FEA520E4EEAC37E18EB0E0E56EB530E9A
:10435000BDD518EB02085E417F1C55F10005B6E79C
:104360004FF480154FF000074FF000064FF00008A3
:10437000ADE7F0BC4FF0000001F1C04101F0004199
:10438000BDE8008111EA0C1F0CEA131500D00CE007
:1043900013EA0C1F00F025804FF00000F0BC81EA0A
:1043A000030101F00041BDE80081F0BCBDE800411F
:1043B00081EA030100F0BEB9F0BCBDE8004170B570
:1043C00000F06AF9097EFC3E00F007B881EA0301BB
:1043D0004FF0000001F00041704781EA030100F056
:1043E000A9B9F0BCBDE800414FF000002149704779
:1043F000FFFDFBF9F7F5F4F2F0EEEDEBE9E8E6E4AA
:10440000E3E1E0DEDDDBDAD8D7D5D4D3D1D0CFCD30
:10441000CCCBCAC8C7C6C5C4C2C1C0BFBEBDBCBB69
:10442000BAB9B8B7B6B5B4B3B2B1B0AFAEADACAB64
:10443000AAA9A8A8A7A6A5A4A3A3A2A1A09F9F9E3E
:104440009D9C9C9B9A9999989797969595949393F0
:10445000929191908F8F8E8E8D8C8C8B8B8A898987
:10446000888887878685858484838382828181800A
:104470000000FF070000F87F10F0004248BF4042F4
:10448000B0FA80F310FA03F10AD0C3F11D0303F56B
:1044900080634FEA415002EB035202EBD121704797
:1044A0004FF000007047B0FA80F310FA03F10AD021
:1044B000C3F11D0303F580634FEA41504FEA0352F5
:1044C00002EBD12170474FF00000704751EA030C16
:1044D00017D41CF5801F58BFBCF5801F00F1068063
:1044E000994218BF704708BF9042704707D711F52F
:1044F000801F58BF13F5801F19D499427047894215
:1045000070471CF5801F08D5BCF5801FF7D58B427E
:1045100018BF704708BF824270474FF4001C1CEB65
:10452000410F38BF1CEB430F01D28B42704770B56F
:1045300000F0B2F8922449004FF000514FF0805340
:10454000FFF736BEDFF848C170B51CEA111E1EBF6A
:104550001CEA13159EEA0C0F95EA0C0F00F06F8011
:1045600081EA030423EA4C134EEAD47E21EA4C117B
:1045700041F4801143F48013AE44A1FB024CA0FB34
:104580000365AEF17F7E361955EB0C05A1FB034C9C
:104590004CF10003A0FB021C16EB0C06654153F125
:1045A0000003094218BF46F0010613F4007F0BD147
:1045B0004FEA03314FEA0530340341EA155140EA2E
:1045C00016506FF003020AE04FEAC3214FEAC520FC
:1045D000F40241EA555140EA56506FF0020202EBF4
:1045E0002E4201EB025585EACE710AD05FEA440CF7
:1045F00018BF24F0004450F1000041F1000120EA0E
:10460000D47040F2FE7C624500D270BDA84214BF57
:104610004FF080444FF04044002E08BF0024BEF10C
:10462000806FA8BFA1F1C041BDE8704080F28280D8
:104630004FF0000001F1C04101F0004170479EEAD7
:104640000C0F0CEA131518BF95EA0C0F06D04FF0AB
:10465000000081EA030E0EF0004170BD00F01CF86E
:104660008900013E00F007B800F009B84FEA430C9A
:104670005FEA5C5C08D081EA030100F05BB84FEAB6
:10468000410C5FEA5C5CF6D14FF0000001497047D5
:104690000000FF070000F87F0EF1020E2EF0030E5F
:1046A0005EF8046B364205D4012A43EB030515F589
:1046B000001F12D8012841EB010C1CF5001F0CD87B
:1046C0000ED14FEAD17C15F5001F0CEB4C0C0CF110
:1046D000020C08BF4CEBD37C04E04FF0080C01E067
:1046E0004FEAD37C0CEB4C0526FA05F606F00706DC
:1046F000B6F1040C06D20EEB860CBDE870404CF00F
:10470000010C6047DFE80CF0090B02024FF000419A
:104710004FF00000A1F5002170BD19461046012898
:1047200051EB010418BFD4F5001484BF002001F040
:10473000004170BD0808A0F500114FEA3101704733
:1047400053EA010C17D41CF5801F58BFBCF5801F1D
:1047500000F106808B4218BF704708BF8242704745
:1047600007D713F5801F58BF11F5801F19D48B424E
:1047700070479B4270471CF5801F08D5BCF5801F11
:10478000F7D5994218BF704708BF904270474FF461
:10479000001C1CEB430F38BF1CEB410F01D29942A8
:1047A00070470FB40CBC03BCFFF7C1BE91EA030F06
:1047B00010B581F000413FF553AC83F0004300F0A9
:1047C000D5B800002DE9F04101F5801CBCF5001FB3
:1047D000C0F2A9804FEA115C21EA0C510CF1FD0CEA
:1047E00041F480115FEA5C0C0CF5C07C01D3400001
:1047F000494130A4890241EA905187028E0E0A0C89
:10480000A45D04FB04F602FB06F6C6F14046A4FBD9
:104810000662F60D46EA422606FB06F4A4FB0123D7
:104820005242C3F1404338BF5B1EA6FB0242002444
:10483000E6FB0324D20B42EA4446A6FB0623A1FB77
:1048400002E2A3FB07E4E3FB61426442C2F1404E93
:1048500038BFAEF1010EA6FB04234FF00002E6FBC9
:104860000E32A2FB03463400E2FB6264A1FB06E6C3
:10487000A4FB07E8E4FB61687642C8F1405838BF02
:10488000A8F10108A2FB06E4A3FB08E5E2FB6854DB
:10489000A1FB05E6A7FB04E8E1FB648618F120050F
:1048A00056F10006A809A8F11B08B10908F03F0855
:1048B000B8F10A0F40EA86601CD901EB0C51BDE843
:1048C000F08100BFFCF5EEE8E2DDD8D3CFCBC7C363
:1048D000C0BDB9B6B4B1AEACA9A7A5A3A19F9D9B1D
:1048E0009A9896959392908F8D8C8B8988878685E0
:1048F00084838281A0FB006800FB01F208EB420880
:10490000B8EB872807D5341858EB0104D5D5401CDF
:1049100051F10001D1E7341A78EB0104CDD4401EE7
:1049200071F10001C9E75FEA4C0C5FEA9C5C0DD1B4
:1049300005D34FF0000001F00041BDE8F081BDE873
:10494000F04170B5FFF7A8FE6DDBFFBEBDE8F0419A
:104950004FF00000004970470000F87F10B591EA61
:10496000030F48BF83F000433FF57AAB841A71EB25
:10497000030C07D212198CF0004C43EB0C03001B04
:1049800061EB0C01DFF8A4E14FEA1154A4EB135CD6
:104990001EEA430F18BF9EEA445F00F0B08023EA8E
:1049A0006E03524221EA0451C3EB6E0338BF5B1E13
:1049B000DCF1200E25D322FA0CFE10EB0E0043FA98
:1049C0000CFE41EB0E01CCF1200E03FA0EFE10EBB3
:1049D0000E0051F10001CCF1200E29D412FA0EF292
:1049E00001EB0451BDE8104058BF7047401C1CBF8C
:1049F000B2F1004F704700280CBF491C20F00100A5
:104A0000704712EB020E43EB030218BF4FF0010E8A
:104A10004EEA4202ACF1200CDCF11E0E54D943FAEE
:104A20000CFE10EB0E0051F1FF31CCF11E0ED5D56E
:104A30000EF1010E12FA0EFE404141EB010101EBB5
:104A4000445C5FEA5C5C10D910EBDE7001EB045152
:104A500038BFBEF1004FBDE8104018BF70470028B6
:104A60000CBF491C20F00100704730D24FEAD42C13
:104A700011F5001124F400641BD0B1FA81F20B3A55
:104A8000A41AA41ED2F12003914030FA03F3194373
:104A9000904001EBCC71002C01EB0451BDE81040BB
:104AA000A8BF704701F1C0414FF0000001F0004184
:104AB0007047B0FA80F310FA03F100D110BDE41A88
:104AC000173C4805C90AE4E701EB045110BD491041
:104AD00001EB0451BDE810404FEA300002E04FF016
:104AE000000170474A0008BF0042F8D0B2F5001F2D
:104AF00028BF704701F000414FF0000070479EEA68
:104B0000445F07D011EA5E0FBDE8104004BF0021EA
:104B100000207047BDE8104070B5FFF7BDFD00BF35
:104B200040DFF63E83F00041104670470000E0FF92
:104B300043004FEAD30C4FEA3C0C43401FBF4007F1
:104B40000CF1605113F0FE4F70471CF0006F03D161
:104B500000200CF0004170470CF0004343EA507015
:104B600010B540EACC0000F00EF800BF0000009243
:104B70004FEA0001FFF7DEBD4FF000414FF00000AB
:104B8000A1F5002170470EF1020E2EF0030E5EF823
:104B9000044B244204D44FEA4102B2F17F4F11D8B2
:104BA0004FEA4003B3F17F4F0CD80ED14FEAD07CCF
:104BB000B2F17F4F0CEB4C0C0CF1020C08BF4CEB2C
:104BC000D17C04E04FF0080C01E04FEAD17C0CEB03
:104BD0004C0324FA03F404F00704B4F1040C06D2E5
:104BE0000EEB840CBDE810404CF0010C6047DFE890
:104BF0000CF0070802024FF00040A0F5800010BD45
:104C00000846420018BFD2F1807288BF00F0004011
:104C100010BD4FF04070E1EE100A7047FF2141EAED
:104C2000D050C0057047FDF7DBBB0CF00F03092B1C
:104C300008BF082000F059800A2B0BD0082B18BFA2
:104C4000704708BF1CF0400F0AD04FF000004FF033
:104C5000000170471CF0400F18BF4FF00040704734
:104C60001CF0100F08D020F0704300F07F4242EAA1
:104C7000D3014FEA4370704700F0604021F07F425B
:104C800042EA000201F07F4040EA727070474FF044
:104C9000FF0C4CF4E06C1CEA11531CBF9CEA030CA3
:104CA0009445C2BFDA4201EB02517047002B0DD090
:104CB000BCF1000F0FD0002A01F00041A4BF41F069
:104CC000E04141F07F614FF00000704701F000418A
:104CD0004FF00000704750EA01334FF09B0C18BFB3
:104CE0004CF0806C7FF45CAA70471CF4801F11D0DC
:104CF0001CF4E02F03D06FEACC31490070474FF02D
:104D00004050EFF3008222F0704242EA000282F348
:104D1000008870474FF0000070470000000000005E
:104D2000000000000000F03F000000000000F83F1D
:104D300000000000000000000000004003B8E23F57
:104D4000000000000000000006D0CF43EBFD4C3E09
:104D5000033333333333E33FFFAB6FDBB66DDB3FFE
:104D60004D268F515555D53F01411DA96074D13F46
:104D700065DBC9934A86CD3FEF4E454A287ECA3F40
:104D80003E5555555555C53F93BDBE166CC166BFC2
:104D90002CDE25AF6A56113FF16BD2C541BDBBBEBB
:104DA000D0A4BE726937663E00000000000000001B
:104DB00002400000000000A00000000005400000CC
:104DC000000000C8000000000C4000000000409CF3
:104DD00000000000194000000020BCBE00000000E0
:104DE00034400000BFC91B8E00000004B540000025
:104DF000504BCFD06607E2CF010000006C410000AD
:104E00003E8251AADFEEA73401000000D942000023
:104E1000DCB5A0E23A301F97FFFFFFFFB44500006A
:104E2000FD25A0C8E9A3C14FFFFFFFFFFF3F000022
:104E30000000008000000000FF3F00000000008034
:104E400000000000804E0008000000206400000008
:104E5000C4010008E44E0008640000202C07000094
:104E6000E00100081C00000043000000F8FFFFFF05
:104E70000C0000000E0000000F0000002E000000DB
:104E8000007A030A00000000000000000102030491
:104E900006070809000000000000000000000000F4
:104EA0000000000000000000000000000000000002
:104EB00000000000000000000000000000000000F2
:104EC00000000000000000000000000000000000E2
:104ED00000000000000001020304010203040607B1
:044EE00008090000BD
:040000050800018965
:00000001FF
